:100000000C9434000C9451000C9451000C94510049
:100010000C9451000C9451000C9451000C94690AFA
:100020000C9451000C9451000C9451000C9451000C
:100030000C9451000C9451000C94D7090C9451006D
:100040000C9451000C9451000C9451000C945100EC
:100050000C9451000C9451000C9451000C945100DC
:100060000C9451000C94510011241FBECFEFD8E026
:10007000DEBFCDBF11E0A0E0B1E0EEE1FAE102C0E9
:1000800005900D92A03DB107D9F725E0A0EDB1E0B4
:1000900001C01D92A031B207E1F70E94B80A0C948A
:1000A0000D0D0C94000083E494E090933804809349
:1000B000370480910B0590E090933A0480933904C3
:1000C00080913C04833009F062C080914504909196
:1000D0004604885891098D35910508F054C08091E7
:1000E0000B05843021F58091470490914804809756
:1000F0004797E8F48091490490914A040997099739
:10010000B0F410923604109235048FEF9FEFDC01AB
:100110008093310490933204A0933304B093340459
:1001200081E090E09093300480932F0408958091B3
:100130000B05843440F18091470490914804825427
:1001400091098E9700F530E020E080E090E0DC013E
:10015000F901E75BFB4F408151814950510949301A
:10016000510588F4F901E55BFB4F4081518146510F
:1001700051094131510570F040815181465051097A
:100180004730510530F110923C0410920B0590E07D
:1001900080E00895880F991FAA1FBB1F81602C5F04
:1001A0003F4F20383105A1F620E230E0309336048D
:1001B000209335048093310490933204A093330448
:1001C000B09334041092300410922F0481E090E038
:1001D0000895880F991FAA1FBB1FE1CF4F925F920E
:1001E0007F928F929F92AF92BF92CF92DF92EF92C7
:1001F000FF920F931F93CF93DF934090B3015090E2
:10020000B401C0912D03D0912E03EDE1F3E0420142
:1002100055E0880C991C5A95E1F78C0E9D1E30E034
:1002200020E0A401415D5C4F4A012817390771F1B4
:10023000590145E0AA0CBB1C4A95E1F7A80CB91C72
:100240008F0150E040E07901E40CF51C4617570798
:10025000C9F0D8017D908D01B1E07B1210C0A8E0FB
:10026000EA16F10460F46A01CC0EDD1EB0E2CB1692
:10027000D10428F46501C40ED51ED6017C924F5FCF
:100280005F4FE4CF2F5F3F4F3496CFCFDF91CF91B9
:100290001F910F91FF90EF90DF90CF90BF90AF90A4
:1002A0009F908F907F905F904F900895813091053F
:1002B00041F08230910569F0892B81F481E090E072
:1002C0000895329BFDCF81E08093D40282E090E0DC
:1002D00008953299F5CF1092D402F0CF1092D40243
:1002E00090E080E008958130910561F082309105C1
:1002F00049F0892B39F51092D3011092D20181E097
:1003000090E00895319BF7CF8091D2019091D30175
:1003100001969093D3018093D20163E070E00E9434
:10032000DF0C892B61F48091B3019091B401873087
:10033000910528F401969093B4018093B30182E073
:1003400090E0089590E080E008958130910561F09B
:100350008230910549F0892B31F51092D10110922C
:10036000D00181E090E00895309BF7CF8091D001DB
:100370009091D10101969093D1018093D00163E0D7
:1003800070E00E94DF0C892B59F48091B3019091A9
:10039000B401009729F001979093B4018093B301C1
:1003A00082E090E0089590E080E008958FE293E08D
:1003B00030E020E0FC01E20FF31F10822F5F3F4F7F
:1003C00020323105B9F7809624E08F32920781F709
:1003D00008952FE233E044ED51E090E080E0F90130
:1003E000E80FF91F1082FA01E80FF91F1082019639
:1003F00080329105A1F7205E3F4F405E5F4F84E061
:100400002F32380751F708958EBD0DB407FEFDCF8A
:1004100008950F931F93CF932A98C1E004E010E052
:100420008C2F0E94040280E00E94040201501109F6
:10043000B9F7CF5FC93091F72A9ACF911F910F91E9
:100440000895CF93DF932A98C4E0D0E089E00E941A
:10045000040280E00E9404022197C1F72A9A2A9898
:10046000C4E0D0E08AE00E94040282E00E9404021C
:100470002197C1F72A9A2A98C4E0D0E08BE00E9425
:10048000040287E00E9404022197C1F72A9A2A9861
:10049000C4E0D0E08CE00E94040281E00E940402EB
:1004A0002197C1F72A9A2A98C4E0D0E08FE00E94F1
:1004B000040280E00E9404022197C1F72A9ADF918A
:1004C000CF9108959F92AF92BF92CF92DF92EF9219
:1004D000FF920F931F93CF93DF9384EDE82E81E07B
:1004E000F82E0FE213E0C1E0CC24C394D12C90E0AD
:1004F00080E0D0E0F801E80FF91F2081211106C04B
:10050000F701E80FF91F2081222339F09601082E08
:1005100001C0220F0A94EAF7D22B01968830910588
:1005200049F7B12CF801E80FF91F2081211106C00D
:10053000F701E80FF91F2081222351F09C01285078
:100540003109A60102C0440F551F2A95E2F7B42ACB
:1005500001968031910531F7A12CF801E80FF91FC0
:100560002081211106C0F701E80FF91F2081222305
:1005700051F09C0120513109A60102C0440F551FC2
:100580002A95E2F7A42A01968831910531F7912C3A
:10059000F801E80FF91F2081211106C0F701E80FCB
:1005A000F91F2081222351F09C0128513109A60115
:1005B00002C0440F551F2A95E2F7942A0196803213
:1005C000910531F72A988C2F0E940402892D0E94F0
:1005D00004028C2F0E9404028A2D0E9404028C2F98
:1005E0000E9404028B2D0E9404028C2F0E940402A0
:1005F0008D2F0E9404022A9ACF5F50E2E50EF11C73
:10060000005E1F4FC93009F072CFDF91CF911F916B
:100610000F91FF90EF90DF90CF90BF90AF909F90A1
:1006200008959091C00095FFFCCF8093C600089577
:10063000880F991FFC01E754FE4F8081880F8BB90A
:10064000808180FF02C0459A0895459808950E94D0
:100650006C0C67E070E00E94F30C8730910508F0A5
:100660006FC0FC01EA5CFC4F0C94070D3D036D0369
:10067000A103CF03F9032704570481E080931D03EE
:1006800080931E0310921F03109220038093210376
:1006900080932203109223031092240310922503C7
:1006A0001092260310922703109228031092290318
:1006B00010922A0310922B0310922C0382E090E0F8
:1006C000909318038093170390931A038093190350
:1006D00010921C0310921B03089581E080931D0368
:1006E00080931E0380931F03109220031092210316
:1006F0001092220380932303109224031092250367
:1007000010922603109227031092280310922903B7
:1007100010922A0310922B0310922C0383E090E096
:10072000909318038093170382E090E090931A034C
:100730008093190381E090E090931C0380931B0346
:10074000089510921D0310921E0381E080931F03F1
:10075000109220038093210380932203809323032C
:10076000109224031092250310922603109227035F
:10077000109228031092290310922A0310922B033F
:1007800010922C0383E090E090931803809317035A
:1007900082E090E090931A0380931903CDCF1092DA
:1007A0001D0381E080931E0310921F03109220030B
:1007B0008093210380932203109223031092240339
:1007C000109225038093260310922703109228038A
:1007D0001092290310922A0310922B0310922C03DB
:1007E00082E090E0909318038093170383E090E0F9
:1007F000D1CF81E080931D0380931E0380931F035C
:10080000809320031092210310922203109223035D
:1008100010922403109225031092260310922703AE
:10082000109228031092290310922A0310922B038E
:1008300010922C0384E090E09093180380931703A8
:1008400021E030E030931A032093190375CF109202
:100850001D0381E080931E0310921F03109220035A
:100860008093210380932203109223031092240388
:1008700080932503109226031092270310922803D9
:100880001092290310922A0310922B0310922C032A
:1008900082E090E0909318038093170383E090E048
:1008A00090931A038093190385E090E045CF81E08F
:1008B00080931D0310921E0310921F0310922003B9
:1008C0008093210380932203109223031092240328
:1008D0001092250380932603109227031092280379
:1008E0001092290310922A0310922B0310922C03CA
:1008F00082E090E0909318038093170383E090E0E8
:1009000090931A038093190386E090E015CF7F92AD
:100910008F929F92AF92BF92CF92DF92EF92FF920F
:100920000F931F93CF93DF936A01EB017C0110E0DB
:1009300000E0812C34E2932E34EFA32EB12C4EE153
:10094000742E0C151D05D1F1F701219131917F0114
:1009500021153105A1F41092890010928800299187
:100960003991729EC001739E900D1124019718F168
:10097000EFE9FFE03197F1F700C00000F7CF83E027
:10098000220F331F8A95E1F750E040E0C501B40122
:100990000E947C0C215031093093870020938600FF
:1009A0008091860090918700969587959093890015
:1009B00080938800D4CF0F5F1F4FC3CF1092890060
:1009C00010928800DF91CF911F910F91FF90EF90CF
:1009D000DF90CF90BF90AF909F908F907F900895C1
:1009E0008F929F92AF92BF92CF92DF92EF92FF923F
:1009F0000F931F93CF93DF93CDB7DEB7A1970FB6B9
:100A0000F894DEBF0FBECDBF8130910551F1823029
:100A1000910509F48AC0892B09F0ACC00E9421021B
:100A20000E9409020E94E9010E94620210922E03B4
:100A300010922D0383E090E09093B4018093B30172
:100A40001092D7021092D6021092D5021092D902BB
:100A50001092D8028AE090E00E94180381E090E0B2
:100A600095C08091DA02882309F349E150E06BE4F4
:100A700071E08DE791E00E9487040E9427030E94A5
:100A8000D60160911703709118038091190390911A
:100A90001A030E94EE000E9462028091D802909197
:100AA000D9020E94180320914A012111DFC010923F
:100AB0001C0310921B032FE233E004ED11E06FE200
:100AC00074E0A801DD24D39490E080E0F901E80F00
:100AD000F91FB081BB2331F07A01E80EF91ED7016E
:100AE000DC92108201968032910581F7205E3F4FA3
:100AF000405E5F4F6217730739F7C090D802D090FD
:100B0000D90296018FE190E0FC01EC52FE4F50E0DB
:100B100040E06081662309F477C04F5F5F4FB09675
:100B200048305105B1F7AC0146C08091D702909191
:100B3000DA02992351F02091D8023091D9022A305B
:100B4000310518F4882309F4A8CF19A281119AC39A
:100B500080E30E9411038E010F5D1F4FD8018D911C
:100B60008D01882319F00E941103F8CF8AE00E94BA
:100B7000110356CF10922E0310922D0383E090E0C4
:100B80009093B4018093B30190E080E0A1960FB6FA
:100B9000F894DEBF0FBECDBFDF91CF911F910F91B3
:100BA000FF90EF90DF90CF90BF90AF909F908F908D
:100BB000089541505109141615069CF4FA01EC529F
:100BC000FE4F70E060E07F01B1E0EB1AF108D70161
:100BD000FC90F0826F5F7F4FB0966830710599F797
:100BE000E8CF1092D4011092F401109214021092E6
:100BF00034021092540210927402109294021092D5
:100C0000B4022F5F3F4F0196019708F07DCF3093DC
:100C1000D9022093D802C216D30641F043E050E037
:100C20006EE371E084E491E00E948704F801808122
:100C30008823A9F081E08093D7020E94270383E0F4
:100C400090E09093B4018093B30110922E03109220
:100C50002D0381E080934A0182E090E097CF005E0F
:100C60001F4FF2E0043D1F0709F7E7CF8091D40240
:100C7000882309F451C0E0911B03F0911C03E73075
:100C8000F10508F047C0E55BF94F8091D5029091DE
:100C9000D6020C94070D5206D0064507A907160880
:100CA0007608C1088330910508F075C001969093CD
:100CB000D6028093D50210921D0310921E0310924B
:100CC0001F0310922003109221031092220310920E
:100CD00023031092240310922503109226031092EE
:100CE0002703109228031092290310922A031092CE
:100CF0002B0310922C038091D5029091D602049779
:100D000048F481E080931D0380931E0380932103A8
:100D1000809322031092D4020091170310911803BC
:100D2000E0901903F0901A0380902D0390902E0309
:100D30006DE173E08091B3019091B40135E0880FCB
:100D4000991F3A95E1F7880D991D8C529E4FB0E09E
:100D5000A0E0EA16FB0609F465C26B0150E040E032
:100D60000417150709F458C2F60131916F013130AB
:100D700079F45A01A80CB91CFFE1AF16B10408F0D0
:100D800050C25C01A40EB51EF5013181311149C27A
:100D90004F5F5F4FE5CF1092D6021092D5028BCFF6
:100DA0008330910508F040C001969093D60280935D
:100DB000D50210921D0310921E0310921F03109271
:100DC0002003109221031092220310922303109209
:100DD00024031092250310922603109227031092E9
:100DE00028031092290310922A0310922B031092C9
:100DF0002C038091D5029091D6028130910529F182
:100E0000C0F08230910569F18330910509F082CFFD
:100E100031E030931D033093210330932503309349
:100E20001E0342E050E028C01092D6021092D50274
:100E3000C0CF81E080931D0380931E0380931F0326
:100E40008093230383E090E0C5C081E080931E037C
:100E500080932203809326038093250382E090E011
:100E6000DEC031E030931D03309323033093210320
:100E70003093220343E050E050931803409317034C
:100E800090931A038093190345CF83309105F0F5B1
:100E900001969093D6028093D50210921D03109272
:100EA0001E0310921F031092200310922103109230
:100EB0002203109223031092240310922503109210
:100EC00026031092270310922803109229031092F0
:100ED0002A0310922B0310922C038091D50290913B
:100EE000D6028130910509F1B0F08230910539F1D7
:100EF0008330910509F00ECF31E030931D0330931C
:100F00001E0330932603309322038BCF1092D60218
:100F10001092D502C2CF81E08093210380932203F7
:100F20008093230380931F038DCF81E080931D0363
:100F30008093210380932503809326038FCF31E094
:100F400030931D0330931E033093210330931F030E
:100F500091CF8330910508F044C001969093D6025A
:100F60008093D50210921D0310921E0310921F034E
:100F70001092200310922103109222031092230357
:100F80001092240310922503109226031092270337
:100F9000109228031092290310922A0310922B0317
:100FA00010922C038091D5029091D6028130910548
:100FB00029F1E0F08230910549F18330910509F083
:100FC000A9CE31E030931D0330931E0330931F03ED
:100FD00030932203909318038093170382E090E0EC
:100FE0004FCF1092D6021092D502BCCF81E08093F1
:100FF0001E0380932203809321039ECF81E0809380
:101000001E0380932103809322031ACF31E0309393
:101010001D033093220330932103309325039093D3
:1010200018038093170383E090E02ACF8330910563
:1010300008F045C001969093D6028093D502109295
:101040001D0310921E0310921F0310922003109292
:101050002103109222031092230310922403109272
:101060002503109226031092270310922803109252
:10107000290310922A0310922B0310922C038091C3
:10108000D5029091D6028130910539F0E8F0823096
:101090009105D1F0039709F03DCE81E080931D03C7
:1010A00080932103809325038093290381E090E0BE
:1010B000909318038093170384E090E0E1CE1092A0
:1010C000D6021092D502BBCF81E080931D0380939E
:1010D0001E0380931F038093200384E090E090938D
:1010E00018038093170381E090E0CACE8330910506
:1010F000C8F501969093D6028093D50210921D03F5
:1011000010921E0310921F031092200310922103CD
:1011100010922203109223031092240310922503AD
:10112000109226031092270310922803109229038D
:1011300010922A0310922B0310922C038091D50257
:101140009091D6028130910539F088F08230910576
:1011500071F0039709F0DECD81E080931D03809349
:101160001E0351CF1092D6021092D502C7CF81E054
:1011700080932103809325038093220380931E0391
:101180006DCE83309105D8F501969093D602809369
:10119000D50210921D0310921E0310921F0310928D
:1011A0002003109221031092220310922303109225
:1011B0002403109225031092260310922703109205
:1011C00028031092290310922A0310922B031092E5
:1011D0002C038091D5029091D6028130910539F08F
:1011E00098F08230910581F0039709F093CD81E06A
:1011F0008093210380931E038093220393CE109249
:10120000D6021092D502C5CF81E08093210380934E
:101210001D038093220390CE11966C5F7F4F8096C2
:1012200098CD20E020934A012223C1F00E94D601EC
:10123000B801C7010E94EE000E94620280912D0356
:1012400090912E03019620E230E0201B310B2817ED
:10125000390798F090932E0380932D030E94D601B6
:1012600060911703709118038091190390911A03EC
:101270000E94EE000E946202EFCC10922E031092A8
:101280002D03ECCF81E388A38E01005E1F4F66CC57
:10129000CF93DF93EC018130910559F082309105B5
:1012A00079F1892B09F07CC01092DA02C1E0D0E01C
:1012B0001AC00E945300892BF1F080913104909163
:1012C0003204A0913304B09134048D35924AAF4F6B
:1012D000B10569F481E08093DA0210923C04109227
:1012E0000B05C2E0D0E0CE01DF91CF9108951092BE
:1012F0003C0410920B051092890010928800F3CFE5
:101300000E9453002091D8023091D902892B39F4E0
:101310008091D702811103C02A30310520F38091DA
:10132000310490913204A0913304B09134048D358E
:10133000924AAF4FB10561F08091D702811133C05D
:101340002A30310540F410923C0410920B05CBCFAB
:101350002A30310540F04AE050E066E171E08AE26F
:1013600091E00E9487048091D702882341F045E0F4
:1013700050E060E071E08CE091E00E948704109200
:10138000DA021092D7021092D9021092D80210926B
:1013900089001092880010923C0410920B0586CFB1
:1013A000D0E0C0E0A0CF2A30310508F3D4CF1F929F
:1013B0000F920FB60F9211242F933F938F939F9309
:1013C000EF93FF93E0913F04F091400480812091DE
:1013D0003B0490E002C0959587952A95E2F78170CD
:1013E00020914104309142042F5F3F4F30934204DB
:1013F0002093410490910B05943618F093E090935C
:101400003C0490913C049130C9F188F0923009F489
:1014100050C0933009F459C0FF91EF919F918F9183
:101420003F912F910F900FBE0F901F901895811133
:10143000F3CF80914104909142048436910528F4C1
:101440001092420410924104E7CF10920B05E091F4
:101450000B0581E08E0F80930B05F0E08091410435
:1014600090914204EE0FFF1FED5BFB4F9183808351
:10147000109242041092410481E018C0882361F266
:10148000E0910B0581E08E0F80930B05F0E08091D9
:10149000410490914204EE0FFF1FED5BFB4F9183DF
:1014A0008083109242041092410482E080933C04B5
:1014B000B3CF882361F28091410490914204853634
:1014C000910508F4A9CF83E0F1CF882309F4B8CFC0
:1014D000A3CF1F920F920FB60F9211248F939F9359
:1014E000AF93BF938091DB029091DC02A091DD026B
:1014F000B091DE020197A109B1098093DB029093BC
:10150000DC02A093DD02B093DE02892B8A2B8B2BA9
:1015100099F481E08093DF028091AF019091B00156
:10152000A091B101B091B2018093DB029093DC02F3
:10153000A093DD02B093DE02BF91AF919F918F9196
:101540000F900FBE0F901F901895FC010FB6F894E6
:1015500060910C0570910D0580910E0590910F051D
:101560000FBE309721F06083718382839383089547
:1015700090E080E00E94A50ACB010E94710C8FEFE1
:101580008AB91BB890E297B99FED98B984B915B89C
:1015900080E480937C0080917A00876880937A0051
:1015A00087E690E09093C5008093C4008091C100CD
:1015B00088608093C1008091C10080618093C100E8
:1015C0008091C10080688093C1008091C1008F77B5
:1015D0008093C10086E08093C200D4E0D0933B04A6
:1015E00087E290E090933E0480933D0486E290E091
:1015F0009093400480933F04F894C2E0C4BDC5BDFD
:1016000084E687BD16BCC0936E00789410923C04AB
:1016100010920B0530913B04E0913D04F0913E04A3
:10162000208181E090E002C0880F991F3A95E2F78F
:10163000809590958223808384B18C6284B98CB527
:1016400080658CBD0E9421020E940902219A80912E
:101650008000826880938000809181008A618093FD
:1016600081001092870010928600809186009091F0
:1016700087009695879590938900809388001092B3
:10168000E00284E690E0A0E0B0E08093E102909375
:10169000E202A093E302B093E4021092E5021092FA
:1016A000E6021092E7021092E80225EA31E0309358
:1016B000EA022093E9021092EB028093EC029093ED
:1016C000ED02A093EE02B093EF021092F00210929E
:1016D000F1021092F2021092F30223E731E030930C
:1016E000F5022093F4021092F6028093F702909391
:1016F000F802A093F902B093FA021092FB02109242
:10170000FC021092FD021092FE0286E591E0909399
:1017100000038093FF021092010389E190E0A0E0B2
:10172000B0E08093020390930303A0930403B0936B
:1017300005031092060310920703109208031092FB
:10174000090388E499E090930B0380930A031092B5
:101750000C0388EC90E0A0E0B0E080930D03909340
:101760000E03A0930F03B093100310921103109275
:101770001203109213031092140380EF94E09093DD
:1017800016038093150385E090E0A0E0B0E080931D
:10179000AF019093B001A093B101B093B201C09397
:1017A000B000D093B1008AEF8093B300C093700073
:1017B0001092B2008091AF019091B001A091B1015F
:1017C000B091B2018093DB029093DC02A093DD0222
:1017D000B093DE028FB780688FBF07E113E080917E
:1017E000DF028823E1F31092DF02C0EED2E04D81E8
:1017F0005E816F81788589819A81AB81BC81481730
:1018000059076A077B0761F48881E985FA85082E04
:10181000000C990B099588831D821E821F821886F1
:101820008D819E81AF81B8850596A11DB11D8D83E7
:101830009E83AF83B8872B960C171D07C1F6CFCFB9
:101840008F929F92AF92BF92CF92DF92EF92FF92D0
:10185000CF93DF93EC01688179818A819B81611547
:1018600071058105910521F464E279ED8BE597E03E
:101870002DE133EF41E050E00E947C0C49015A0118
:101880009B01AC01A7EAB1E40E949B0C6B017C01B7
:10189000ACEEB4EFA50194010E94A90CDC01CB01D0
:1018A0008C0D9D1DAE1DBF1DB7FF03C00197A10983
:1018B000B04888839983AA83BB839F77DF91CF91B8
:1018C000FF90EF90DF90CF90BF90AF909F908F9060
:1018D00008950E94200C089585EB91E00E94200C51
:1018E0000895B0E0A0E08093B5019093B601A09375
:1018F000B701B093B8010895052E97FB1EF400942C
:101900000E94930C57FD07D00E94AE0C07FC03D039
:101910004EF40C94930C50954095309521953F4F83
:101920004F4F5F4F089590958095709561957F4FCB
:101930008F4F9F4F08950E94D00CA59F900DB49F8C
:10194000900DA49F800D911D11240895B7FF0C9454
:101950009B0C0E949B0C821B930B0895A1E21A2EF4
:10196000AA1BBB1BFD010DC0AA1FBB1FEE1FFF1F43
:10197000A217B307E407F50720F0A21BB30BE40B93
:10198000F50B661F771F881F991F1A9469F76095DA
:101990007095809590959B01AC01BD01CF01089594
:1019A000A29FB001B39FC001A39F700D811D1124A0
:1019B000911DB29F700D811D1124911D0895AA1BC8
:1019C000BB1B51E107C0AA1FBB1FA617B70710F02A
:1019D000A61BB70B881F991F5A95A9F7809590955C
:1019E000BC01CD01089597FB072E16F4009407D093
:1019F00077FD09D00E94DF0C07FC05D03EF49095DE
:101A000081959F4F0895709561957F4F0895EE0FD2
:0E1A1000FF1F0590F491E02D0994F894FFCF8C
:101A1E000800080008000800080008000501DC00A6
:101A2E00AF008300570008000800080004000400FF
:101A3E00080008000800040004000501490188019F
:101A4E000B0288010501490188010B02880108007B
:101A5E00080004000B024901880101080008000873
:101A6E000008000800080004000800080004000830
:101A7E00000800040008000800080008000800081C
:101A8E0000040008000800080008000400490126B0
:101A9E0001050126014901490149012601260126B8
:101AAE0001490188018801490126010501260149E4
:101ABE0001490149012601260149012601050101BD
:101ACE000000000300010000007E0030006D007970
:101ADE000033005B005F0070007F007B00000000A1
:00000001FF
